:020000040800F2
:1000000000000220C9080008050A0008070A0008C5
:10001000090A00080B0A00080D0A00080000000089
:100020000000000000000000000000000F0A0008AF
:10003000110A000800000000130A0008150A000851
:100040001909000819090008190900081909000808
:100050001909000819090008190A000819090008F7
:1000600019090008190900081909000819090008E8
:1000700019090008190900081909000819090008D8
:1000800019090008190900081909000819090008C8
:1000900019090008190900081909000819090008B8
:1000A00019090008190900081909000819090008A8
:1000B0001909000819090008190900081909000898
:1000C0001909000819090008190900081909000888
:1000D00019090008210A00082D0A0008190900085A
:1000E0001909000819090008190900081909000868
:1000F0001909000819090008190900081909000858
:100100001909000819090008190900081909000847
:100110001909000819090008190900081909000837
:100120001909000819090008190900081909000827
:100130001909000819090008190900081909000817
:100140001909000819090008190900081909000807
:1001500019090008190900081909000819090008F7
:1001600019090008190900081909000819090008E7
:100170001909000819090008190900080000000001
:08018000190900081909000823
:10018800044B05481B1A062B02D9044B03B1184728
:10019800704700BF3704002034040020000000002E
:1001A80005490648091A891001EBD171491002D096
:1001B800034B03B11847704734040020340400206F
:1001C8000000000010B5064C237843B9FFF7D8FFAC
:1001D800044B13B10448AFF300800123237010BD12
:1001E80034040020000000003019000808B5084B4E
:1001F8001BB108490848AFF300800848036813B9E1
:10020800BDE80840CCE7064B002BF9D09847F7E744
:1002180000000000380400203019000834040020D1
:100228000000000053B94AB9002908BF00281CBFC4
:100238004FF0FF314FF0FF3000F07AB9ADF1080C04
:100248006DE904CE00F006F8DDF804E0DDE90223EC
:1002580004B070472DE9F0478C460D460446089EC9
:10026800002B51D18A4217466DD9B2FA82FEBEF1EF
:10027800000F0BD0CEF1200C01FA0EF520FA0CFC81
:1002880002FA0EF74CEA050C00FA0EF44FEA174A88
:10029800250CBCFBFAF81FFA87F90AFB18CC45EACB
:1002A8000C4508FB09F3AB420AD9ED1908F1FF32F6
:1002B80080F02381AB4240F22081A8F102083D443E
:1002C800ED1AA4B2B5FBFAF00AFB105544EA05444E
:1002D80000FB09F9A14509D9E41900F1FF3380F0C1
:1002E8000A81A14540F2078102383C44A4EB090485
:1002F80040EA08400021002E61D024FA0EF40023C1
:1003080034607360BDE8F0878B4207D9002E54D063
:10031800002186E821000846BDE8F087B3FA83F19A
:10032800002940F08E80AB4202D3824200F2FA806C
:10033800841A65EB03050120AC46002E3FD086E801
:100348001010BDE8F08712B90127B7FBF2F7B7FA2A
:1003580087FEBEF1000F34D1EB1B3A0C1FFA87FC65
:100368000121B3FBF2F8250C02FB183345EA0345DB
:100378000CFB08F3AB4207D9ED1908F1FF3002D2A4
:10038800AB4200F2D1808046ED1AA3B2B5FBF2F081
:1003980002FB105543EA05440CFB00FCA44507D9B1
:1003A800E41900F1FF3302D2A44500F2B8801846E0
:1003B800A4EB0C0440EA08409DE731463046BDE80E
:1003C800F087CEF1200405FA0EF307FA0EF720FAAB
:1003D80004F83A0C25FA04F448EA0308B4FBF2F1ED
:1003E8004FEA184502FB11441FFA87FC45EA044509
:1003F80001FB0CF3AB4200FA0EF409D9ED1901F137
:10040800FF3080F08A80AB4240F2878002393D4459
:10041800EB1A1FFA88F5B3FBF2F002FB103345EA3A
:10042800034500FB0CF3AB4207D9ED1900F1FF3887
:100438006FD2AB426DD902383D44EB1A40EA014114
:100448008FE7C1F1200722FA07F88B4005FA01F47B
:1004580048EA030320FA07FE4FEA134CFD404EEA30
:10046800040EB5FBFCF94FEA1E440CFB19551FFAA4
:1004780083F844EA054509FB08F4AC4202FA01F2A4
:1004880000FA01FA08D9ED1809F1FF3043D2AC425D
:1004980041D9A9F102091D442D1B1FFA8EFEB5FB97
:1004A800FCF00CFB10554EEA054400FB08F8A0458B
:1004B80007D9E41800F1FF3529D2A04527D9023819
:1004C8001C4440EA0940A4EB0804A0FB02894C45FF
:1004D800C6464D4615D312D056B1BAEB0E0364EB9F
:1004E800050404FA07F7CB401F43CC40376074601B
:1004F8000021BDE8F0871846F8E69046E0E6C245D8
:10050800EAD2B8EB020E69EB03050138E4E72846A6
:10051800D7E7404691E78146BEE7014678E70238CB
:100528003C4445E7084608E7A8F102083D442BE7A4
:10053800704700BF002301461A46184600F042B82B
:1005480038B50A4C0A4D641BA4100AD004F1804344
:10055800013B05EB8305013C55F804399847002C0D
:10056800F9D1BDE8384001F0E5B900BF7C190008B1
:100578007819000870B50F4E0F4D761BB61018BFCE
:10058800002405D0013455F8043B9847A642F9D118
:100598000A4E0B4D761B01F0C7F9B61018BF0024A0
:1005A80006D0013455F8043B9847A642F9D170BDEE
:1005B80070BD00BF7019000870190008781900088C
:1005C800701900082DE9F047254C2568D5F84841F1
:1005D8000646884692469946C4B360681F2817DCC9
:1005E800431C76B104EB80050122C5F888A0D4F835
:1005F800881182401143022EC4F88811C5F8089169
:100608001ED00230636044F820800020BDE8F087E7
:10061800144B03B34FF4C870AFF300800446D0B155
:10062800D5F84831002780E88800C5F848413846A1
:100638000123C4F88871C4F88C71002EE1D0D1E789
:10064800D4F88C110A43C4F88C21DAE705F5A674AE
:10065800C5F84841C1E74FF0FF30BDE8F08700BF5B
:1006680048190008000000007FB5042301931223F5
:100678000293012303930223049307230593002382
:100688000093084B08481A6B42F001021A631B6B6F
:1006980003F00103009301A9009B00F035FA07B0AD
:1006A8005DF804FB00380240000002407FB51023CB
:1006B8000193022302930123039307230593002345
:1006C8000093084B08481A6B42F001021A631B6B2F
:1006D80003F00103009301A9009B00F015FA07B08D
:1006E8005DF804FB00380240000002407FB520237B
:1006F80001930023009303930122094B0292049271
:100708001A6B084842F001021A631B6B03F00103DD
:10071800009301A9009B00F0F7F907B05DF804FB0E
:1007280000380240000002407FB5402301930023B7
:10073800009303930122094B029204921A6B084812
:1007480042F001021A631B6B03F00103009301A935
:10075800009B00F0D9F907B05DF804FB00380240AF
:10076800000002400128024603D14021024800F05F
:10077800ABBA0028F9D0FEE7000002400128024683
:1007880003D12021024800F09FBA0028F9D0FEE7E3
:10079800000002400C494FF4805342F61A424FF4CD
:1007A800405C80E80E104FF4806303610C234361C2
:1007B80000238361C3614FF480730362052343629E
:1007C80010238362C36270470044004008B50122C9
:1007D8004FF48041044800F077FA0A22034904489C
:1007E800BDE8084000F055BD000C02405004002050
:1007F800C005002008B500F04FF9FFF795FFFFF797
:1008080075FFFFF753FFFFF72FFF1148FFF7C2FFF0
:10081800642000F069F90020FFF7B0FF022000F023
:1008280063F90120FFF79EFF022000F05DF90848F8
:1008380000F05CFE462000F057F90120FFF79EFF0C
:1008480040F6B83321220349014800F03DFFFEE796
:10085800780400200006002073B5184B0026019686
:100868001A6C42F080521A641B6C03F08053019397
:100878000122019B4FF4803381E80C004FF4800380
:10088800CB6108230B624FF4A87302254B62072340
:1008980004468D618D62CB62084600F027FA0F236B
:1008A80084E868004FF4A053E3604FF48053236159
:1008B8000521204600F0BEFB02B070BD00380240A2
:1008C800DFF834D0002103E00C4B5B58435004316F
:1008D8000B480C4B42189A42F6D30B4A02E000230D
:1008E80042F8043B094B9A42F9D300F0A1F8FFF70C
:1008F80041FEFFF77FFF7047000002207C190008C7
:1009080000000020340400203404002004070020E4
:10091800FEE70000F0B58FB0254C26492648274F42
:100928000026FFF799FF0196236B43F00803236322
:10093800236B069603F0080301930125019B059597
:100948004FF4805304A938460493079500F0DCF867
:100958000296236B43F008032363236B059503F08A
:1009680008030293029B06964FF4804304A9384675
:100978000493079500F0C8F80396236B10482B439F
:100988002363236B09952B400393039B0D4B0A9319
:1009980009A902230B930C9500F0B6F8062000F085
:1009A80049FC0F221146062000F010FC0FB0F0BDE4
:1009B800003802402C05002024060020000C0240CC
:1009C800000002400000111007B50B4B00210191F7
:1009D8001A6C42F400321A641B6C03F4003301935E
:1009E80001222620019B00F0F1FB262000F022FCCA
:1009F80003B05DF804FB00BF003802407047FEE713
:100A0800FEE7FEE7FEE770477047704700F05EB804
:100A1800012000F05FB90000014800F097BC00BF5A
:100A2800C0050020014800F0BBBE00BF78040020CC
:100A38000C4B1A68002142F001021A6099601A688A
:100A480022F0847222F480321A60074A5A601A68C7
:100A580022F480221A60D960044B4FF000629A6039
:100A6800704700BF003802401030002400ED00E05D
:100A780010B5084B0446186842F21073B0FBF3F047
:100A880000F0E4FB002221464FF0FF3000F09EFB0F
:100A9800002010BD3004002008B50B4B1A6842F442
:100AA80000721A601A6842F480621A601A6842F486
:100AB80080721A60032000F077FB0F20FFF7D8FF41
:100AC800FFF728FF002008BD003C0240024A1368D7
:100AD80001331360704700BF00070020014B1868FE
:100AE800704700BF0007002037B50190FFF7F6FFF9
:100AF800019C631C054618BF0134FFF7EFFF401B3C
:100B0800A042FAD303B030BD2DE9F04F85B00B6891
:100B1800DFF8AC81684ADFF8AC91019300234FF00D
:100B2800010E019C0EFA03FE0EEA0406B64540F0DB
:100B3800AE804C6824F01007022F16D14FEAD30A72
:100B480000EB8A0A03F0070BDAF820504FEA8B0B08
:100B58004FF00F0C0CFA0BFC25EA0C0C0D6905FA8A
:100B68000BF545EA0C05CAF820504FEA430A03255D
:100B7800D0F800B005FA0AF5ED4304F0030C0BEACF
:100B8800050B0CFA0AFC013F4CEA0B0C012FC0F8CC
:100B980000C011D8876807EA050BCF6807FA0AFC76
:100BA8004CEA0B078760476827EA0E0EC4F3001764
:100BB8009F4047EA0E074760C7683D408F6807FABD
:100BC8000AF73D43C560E50061D54FF0000BCDF84D
:100BD8000CB0D8F84470394D47F48047C8F84470D1
:100BE800D8F8447007F480470397039F23F003075E
:100BF80007F1804707F59C3703F0030CD7F808A0E6
:100C08004FEA8C0C4FF00F0E0EFA0CFEA8422AEA9F
:100C18000E0E43D005F58065A84241D005F58065E4
:100C2800A8423FD005F58065A8423DD005F580650E
:100C3800A8423BD048453BD005F50065A84239D0CD
:100C480005F58065A84214BF0825072505FA0CF5A7
:100C580045EA0E05BD601568F74314F4803F0CBFE4
:100C68003D4035431560556814F4003F0CBF3D40C6
:100C780035435560956814F4801F0CBF3D403543DB
:100C88009560D568A40254BF3D403543D560013313
:100C9800102B7FF444AF05B0BDE8F08F5D46D5E773
:100CA8000125D3E70225D1E70325CFE70425CDE7C2
:100CB8000525CBE70625C9E7003C014000000240B6
:100CC80000380240001402400AB1816170470904EB
:100CD800FBE7704708B5044B5969014202D05861D7
:100CE800FFF7F7FF08BD00BF003C0140F7B5044619
:100CF80010B9012003B0F0BD0368D8073BD42368BE
:100D0800990700F1848023681E0700F1C6802368D4
:100D18005D072AD500230193AA4BAB4D1A6C42F00C
:100D280080521A641B6C03F080530193019B2B685B
:100D380043F480732B60FFF7D1FE06462B68DA0573
:100D480040F1CD80A3689F4D012B40F0CF802B6FE1
:100D580043F001032B67FFF7C1FE9A4D064641F2A7
:100D680088372B6F9B0740F1E280A269002A40F088
:100D7800E5800020BEE7934B9A6802F00C02042A33
:100D880007D09A6802F00C02082A0AD15B685A0256
:100D980007D58C4B1B689B03B1D56368002BAED17C
:100DA800A7E76368874DB3F5803F11D12B6843F4FB
:100DB80080332B60FFF792FE824D06462B689F0317
:100DC8009DD4FFF78BFE801B6428F7D9032091E799
:100DD800B3F5A02F04D12B6843F480232B60E5E7FB
:100DE8002A6822F480322A602A6822F480222A6043
:100DF800002BDFD1FFF772FE06462B6898037FF5BC
:100E08007EAFFFF76BFE801B6428F6D9DEE76D4BDB
:100E18009A6812F00C0F07D09A6802F00C02082AA0
:100E280012D15B6859020FD4664B1A68920703D532
:100E3800E268012A7FF45DAF1A68216922F0F8029E
:100E480042EAC1021A605EE7E268604BB2B1012271
:100E58001A60FFF743FE5B4D06462B689B0707D5D4
:100E68002B68226923F0F80343EAC2032B604AE7A0
:100E7800FFF734FE801B0228EFD9A7E71A60FFF7B7
:100E88002DFE504D06462B689F077FF53CAFFFF7B8
:100E980025FE801B0228F6D998E762694C4B7AB187
:100EA80001221A60FFF71AFE464D06466B6F980737
:100EB8003FF52DAFFFF712FE801B0228F6D985E714
:100EC8001A60FFF70BFE3F4D06466B6F99077FF5DB
:100ED8001EAFFFF703FE801B0228F6D976E7FFF75F
:100EE800FDFD801B02287FF629AF6FE7052B04D193
:100EF8002B6F43F004032B6729E72A6F22F00102C6
:100F08002A672A6F22F004022A67002B7FF423AF96
:100F1800FFF7E4FD41F2883706462B6F98077FF507
:100F280024AFFFF7DBFD801BB842F6D94EE7FFF789
:100F3800D5FD801BB8427FF614AF47E7214DAB685B
:100F480003F00C03082B3FF4D4AE224E0023022AF0
:100F580033602AD1FFF7C2FD07462B6899011ED4DA
:100F6800226AE3691343626A43EA8213E26A43EA44
:100F78000263A26A134C5208013A43EA02436B60C7
:100F880001233360FFF7AAFD054623689A013FF560
:100F9800F0AEFFF7A3FD401B0228F6D916E7FFF7CE
:100FA8009DFDC01B0228D8D910E7FFF797FD04461E
:100FB8002B689B017FF5DDAEFFF790FD001B022833
:100FC800F6D903E7003802400070004000004742AD
:100FD800800E474260004742134908B58B6803F00A
:100FE8000C03042B03D0082B03D0104808BD10486D
:100FF80008BD4A684B68496813F4800314BF0C485D
:101008000A48C1F3881118BF002302F03F02A1FB70
:101018000001FFF707F9044B5B68C3F30143013391
:101028005B00B0FBF3F008BD003802400024F40078
:1010380000127A002DE9F0410D46044610B901204E
:10104800BDE8F081444B1A6802F00F028A4228D3A7
:1010580021688F072DD4C80740D43F4B1A6802F087
:101068000F02954266D3226851076CD4130707D53F
:101078003A4A2169936823F4604343EAC1039360C1
:10108800FFF7AAFF354B364A9B68C3F30313D35CBB
:10109800D840344B18600F20FFF7EAFC0020BDE869
:1010A800F081CAB21A701B6803F00F039942C6D1C7
:1010B800CEE72A4B11F0040F1EBF9A6842F4E052A3
:1010C8009A600E0742BF9A6842F460429A609A6832
:1010D800A06822F0F00202439A60BCE762681F4BE6
:1010E800012A1DD11B6813F4003FA8D01B4EB3681A
:1010F80023F003031343B360FFF7F0FC41F2883891
:101108000746B368626803F00C03B3EB820FA4D000
:10111800FFF7E4FCC01B4045F3D90320BDE8F0818C
:10112800911E01291B6802D813F0007FDDE713F038
:10113800020FDAE7EAB21A701B6803F00F039D4248
:101148007FF47DAF8FE70549E0688B6823F4E053AF
:1011580003438B608AE700BF003C0240003802402E
:101168004C19000830040020044B054A9B68C3F35F
:101178008223D35C034A1068D84070470038024085
:101188005C19000830040020044B054A9B68C3F32F
:101198004233D35C034A1068D84070470038024095
:1011A8005C19000830040020074AD36823F4E06380
:1011B8001B041B0C43F0BF63000243F4003300F42C
:1011C800E0600343D360704700ED00E0174B30B593
:1011D800DC68C4F30224C4F10703251D042B28BFCF
:1011E8000423062D4FF0010505FA03F303F1FF333D
:1011F8008CBF033C00241940A14005FA04F4013CCB
:101208002240002842EA01024FEA0212AFBF00F171
:10121800604000F00F00064BD2B2A5BF00F5614058
:10122800D2B21A5480F8002330BD00BF00ED00E0B0
:1012380014ED00E04209012300F01F0003FA00F05A
:10124800014B43F82200704700E100E00138B0F19B
:10125800807F0AD2064B074A5860F02182F8231093
:101268000020072298601A6070470120704700BF6D
:1012780010E000E000ED00E00368DA6822F4907204
:10128800DA605A6922F001025A61202380F83A3064
:10129800704790F83930202B18D1A9B1A2B190F835
:1012A8003830012B12D0C284016282840023016885
:1012B800C363212280F83920CA6880F8383042F0A8
:1012C8008002CA60184670470120704702207047A4
:1012D8007047704790F83A30222B10B532D18368A6
:1012E80001690268B3F5805F836A1FD15268C9B982
:1012F800C2F3080223F8022B8362C48D013CA4B216
:10130800C4856CB90368DA6822F49072DA605A69A5
:1013180022F001025A61202380F83A30FFF7D9FF02
:10132800002010BDD2B223F8012BE5E721B9591CE2
:10133800526881621A70E0E75268591C816202F0B3
:101348007F02F7E7022010BD7047000003681A68A3
:10135800D96870B5160704465D6907D196065AD54F
:101368008D0658D5BDE87040FFF7B4BF15F00105EC
:1013780002D111F4907F4ED0D30705D5CE0542BFD8
:10138800E36B43F00103E363500704D51DB1E36B3E
:1013980043F00203E363930704D51DB1E36B43F005
:1013A8000403E363160704D51DB1E36B43F0080398
:1013B800E363E36B002B66D0950604D5880602D557
:1013C8002046FFF787FF23685D69E26B1107204617
:1013D80002D415F040051AD0FFF74EFF23685A696A
:1013E800520610D55A69606B22F040025A6150B11A
:1013F800254B036500F07CFA002844D0606BBDE8FB
:101408007040036D18472046FFF79EFF70BDFFF739
:101418009BFFE56370BD160627D50D0625D594F804
:101428003920212A2FD1A268B2F5805F226A17D10C
:101438001188C1F308015960216979B90232226221
:10144800E28C013A92B2E284EAB9DA6822F08002C8
:10145800DA60DA6842F04002DA6070BD0132EEE725
:10146800511C216212785A60EAE750060BD54A06E9
:1014780009D5DA6822F04002DA60202384F839308E
:101488002046FFF725FF70BD9514000808B5806B4E
:101498000023C385C384FFF757FF08BDF8B504468A
:1014A8000E4617461D4621680B6836EA030301D12C
:1014B8000020F8BD6B1CF7D095B92368DA6822F0D4
:1014C8008002DA60DA6822F02002DA60202384F8E9
:1014D800493084F84A30002384F848300320F8BDA6
:1014E800FFF7FCFAC01B8542DDD2E6E72DE9F0479D
:1014F8000446002800F0E28090F8493003F0FF022B
:101508001BB980F84820FFF75FFA2668626AE0692D
:10151800242384F84930B36923F0FF031343B361EC
:10152800B369A26A23F47F4343EA0223B361F368F1
:10153800E26823F00C03F360A36931690343206A6E
:1015480043F40063034321F4706113430B43336195
:101558003369216923F440531A433261A368F2685E
:101568000B43616922F4B05222F00C020B4313437F
:10157800F360736923F440737361524B9E4203D046
:1015880003F580639E4269D1FFF7FEFD6768192560
:101598004FF0640905FB00F3BF00B3FBF7F3B3FB9F
:1015A800F9F31F01FFF7F0FD636868439B00B0FB88
:1015B800F3F8FFF7E9FD636868439B00B0FBF3F3BA
:1015C800B3FBF9F309FB13831B013233B3FBF9F3C4
:1015D80003F0F008FFF7D8FD626868439200B0FB9B
:1015E800F2FAFFF7D1FD636868439B00B0FBF3F3A1
:1015F800B3FBF9F309FB13A31B013233B3FBF9F374
:1016080003F00F0343EA08033B44B3602368E16A2D
:101618001A6922F480421A615A6922F00A025A6150
:10162800DA6842F48072DA605A6942F001025A615B
:10163800DA6842F40052DA605A6922F010020A436A
:101648005A615A6942F020025A6100202023E0645E
:1016580084F8493084F84A30BDE8F087FFF784FD04
:10166800676819254FF0640905FB00F3BF00B3FB59
:10167800F7F3B3FBF9F31F01FFF776FD63686843DF
:101688009B00B0FBF3F8FFF76FFD636868439B00AE
:10169800B0FBF3F3B3FBF9F309FB13831B013233FC
:1016A800B3FBF9F303F0F008FFF75EFD62686843E7
:1016B8009200B0FBF2FAFFF757FD94E70120BDE86E
:1016C800F08700BF001001402DE9F0411F4690F857
:1016D8004A30202B04460D46904632D171B36AB386
:1016E80090F84830012B2CD0012380F84830002393
:1016F800C364222380F84A30FFF7F0F9A4F83C804D
:101708000646A4F83E80E08F80B230B9202384F8E2
:101718004A3084F84800BDE8F081E38F013B9BB272
:10172800E38732463B4620212046FFF7B7FE58B9EB
:1017380023685B68DBB225F8013BE4E70120BDE8DC
:10174800F0810220BDE8F0810320BDE8F0817047F8
:1017580090F84A20222A10B51ED10268816B54687D
:10176800E4B221F8014BC48F8163013CA4B2C48761
:1017780084B9D16821F02001D160D16821F4807149
:10178800D160516921F001015161202280F84A207D
:10179800FFF71CF8002010BD022010BD70470000A4
:1017A80003681A68D96870B5160704465D6907D1D9
:1017B800960662D58D0660D5BDE87040FFF7C8BFB4
:1017C80015F0010502D111F4907F56D0D30705D545
:1017D800CE0542BFE36C43F00103E364900704D5F0
:1017E8001DB1E36C43F00403E364530704D51DB152
:1017F800E36C43F00203E364160704D51DB1E36C00
:1018080043F00803E364E36C002B65D0950604D528
:10181800880602D52046FFF79BFF23685D69E16CC7
:10182800090702D415F0400522D0202284F84A2066
:10183800DA6822F49072DA605A6922F001025A6179
:101848005A69520610D55A69606C22F040025A61F2
:1018580050B1224B036500F04BF800283CD0606C77
:10186800BDE87040036D18472046FFF797FF70BD2D
:101878002046FFF793FFE56470BD16061AD50D06DE
:1018880018D594F84920212A26D1226B32F8011B59
:10189800C1F3080159602263E28E013A92B2E286EE
:1018A800D2B9DA6822F08002DA60DA6842F04002DF
:1018B800DA6070BD50060FD54A060DD5DA6822F0F9
:1018C8004002DA605A6922F001025A61202384F842
:1018D80049302046FFF73BFF70BD00BFE9180008FC
:1018E80008B5806B0023C387C386FFF757FF08BD81
:1018F80090F83530022B03D08023436501207047D0
:101908000268052380F83530136823F0010313605B
:1019180000207047024B13B10248FEF70BBE704718
:101928000000000049050008F8B500BFF8BC08BC75
:101938009E467047F8B500BFF8BC08BC9E46704785
:10194800080000200000000000000000010203045D
:101958000607080900000000010203044300000014
:08196800F4E8FF7F010000001C
:081970001D190008F501000833
:04197800CD01000895
:10197C00080000200000000000000000F40200201D
:10198C005C030020C40300200000000000000000E5
:10199C00000000000000000000000000000000003B
:1019AC0000000000000000000000000064190008A6
:1019BC00000000000000000000000000000000001B
:1019CC00000000000000000000000000000000000B
:1019DC0000000000000000000000000000000000FB
:1019EC0000000000000000000000000000000000EB
:1019FC0000000000000000000000000000000000DB
:101A0C0000000000000000000000000000000000CA
:101A1C0000000000000000000000000000000000BA
:101A2C0001000000000000000E33CDAB34126DE657
:101A3C00ECDE05000B0000000000000000000000C0
:101A4C00000000000000000000000000000000008A
:101A5C00000000000000000000000000000000007A
:101A6C00000000000000000000000000000000006A
:101A7C00000000000000000000000000000000005A
:041DAC000024F4001B
:04000005080008C91E
:00000001FF
